{
  "contractName": "Delegate",
  "abi": [
    {
      "constant": true,
      "inputs": [],
      "name": "name",
      "outputs": [
        {
          "name": "",
          "type": "bytes32"
        }
      ],
      "payable": false,
      "stateMutability": "view",
      "type": "function"
    },
    {
      "constant": true,
      "inputs": [],
      "name": "governance",
      "outputs": [
        {
          "name": "",
          "type": "address"
        }
      ],
      "payable": false,
      "stateMutability": "view",
      "type": "function"
    },
    {
      "constant": true,
      "inputs": [],
      "name": "aerum",
      "outputs": [
        {
          "name": "",
          "type": "address"
        }
      ],
      "payable": false,
      "stateMutability": "view",
      "type": "function"
    },
    {
      "constant": false,
      "inputs": [],
      "name": "renounceOwnership",
      "outputs": [],
      "payable": false,
      "stateMutability": "nonpayable",
      "type": "function"
    },
    {
      "constant": true,
      "inputs": [],
      "name": "owner",
      "outputs": [
        {
          "name": "",
          "type": "address"
        }
      ],
      "payable": false,
      "stateMutability": "view",
      "type": "function"
    },
    {
      "constant": true,
      "inputs": [],
      "name": "isOwner",
      "outputs": [
        {
          "name": "",
          "type": "bool"
        }
      ],
      "payable": false,
      "stateMutability": "view",
      "type": "function"
    },
    {
      "constant": false,
      "inputs": [
        {
          "name": "sender",
          "type": "address"
        }
      ],
      "name": "initialize",
      "outputs": [],
      "payable": false,
      "stateMutability": "nonpayable",
      "type": "function"
    },
    {
      "constant": false,
      "inputs": [
        {
          "name": "newOwner",
          "type": "address"
        }
      ],
      "name": "transferOwnership",
      "outputs": [],
      "payable": false,
      "stateMutability": "nonpayable",
      "type": "function"
    },
    {
      "constant": true,
      "inputs": [
        {
          "name": "",
          "type": "address"
        }
      ],
      "name": "stakerAerumAddress",
      "outputs": [
        {
          "name": "",
          "type": "address"
        }
      ],
      "payable": false,
      "stateMutability": "view",
      "type": "function"
    },
    {
      "constant": true,
      "inputs": [],
      "name": "token",
      "outputs": [
        {
          "name": "",
          "type": "address"
        }
      ],
      "payable": false,
      "stateMutability": "view",
      "type": "function"
    },
    {
      "anonymous": false,
      "inputs": [
        {
          "indexed": false,
          "name": "aerum",
          "type": "address"
        }
      ],
      "name": "AerumAddressUpdated",
      "type": "event"
    },
    {
      "anonymous": false,
      "inputs": [
        {
          "indexed": false,
          "name": "blocked",
          "type": "bool"
        }
      ],
      "name": "BlacklistUpdated",
      "type": "event"
    },
    {
      "anonymous": false,
      "inputs": [
        {
          "indexed": false,
          "name": "active",
          "type": "bool"
        }
      ],
      "name": "IsActiveUpdated",
      "type": "event"
    },
    {
      "anonymous": false,
      "inputs": [
        {
          "indexed": true,
          "name": "staker",
          "type": "address"
        },
        {
          "indexed": false,
          "name": "amount",
          "type": "uint256"
        }
      ],
      "name": "Staked",
      "type": "event"
    },
    {
      "anonymous": false,
      "inputs": [
        {
          "indexed": true,
          "name": "staker",
          "type": "address"
        },
        {
          "indexed": false,
          "name": "amount",
          "type": "uint256"
        }
      ],
      "name": "Unstaked",
      "type": "event"
    },
    {
      "anonymous": false,
      "inputs": [
        {
          "indexed": true,
          "name": "previousOwner",
          "type": "address"
        },
        {
          "indexed": true,
          "name": "newOwner",
          "type": "address"
        }
      ],
      "name": "OwnershipTransferred",
      "type": "event"
    },
    {
      "constant": false,
      "inputs": [
        {
          "name": "_owner",
          "type": "address"
        },
        {
          "name": "_token",
          "type": "address"
        },
        {
          "name": "_governance",
          "type": "address"
        },
        {
          "name": "_name",
          "type": "bytes32"
        },
        {
          "name": "_aerum",
          "type": "address"
        }
      ],
      "name": "init",
      "outputs": [],
      "payable": false,
      "stateMutability": "nonpayable",
      "type": "function"
    },
    {
      "constant": true,
      "inputs": [],
      "name": "getName",
      "outputs": [
        {
          "name": "",
          "type": "string"
        }
      ],
      "payable": false,
      "stateMutability": "view",
      "type": "function"
    },
    {
      "constant": false,
      "inputs": [
        {
          "name": "_aerum",
          "type": "address"
        }
      ],
      "name": "setAerumAddress",
      "outputs": [],
      "payable": false,
      "stateMutability": "nonpayable",
      "type": "function"
    },
    {
      "constant": true,
      "inputs": [
        {
          "name": "_staker",
          "type": "address"
        }
      ],
      "name": "getAerumAddress",
      "outputs": [
        {
          "name": "",
          "type": "address"
        }
      ],
      "payable": false,
      "stateMutability": "view",
      "type": "function"
    },
    {
      "constant": false,
      "inputs": [
        {
          "name": "_blocked",
          "type": "bool"
        }
      ],
      "name": "updateBlacklist",
      "outputs": [],
      "payable": false,
      "stateMutability": "nonpayable",
      "type": "function"
    },
    {
      "constant": true,
      "inputs": [
        {
          "name": "_timestamp",
          "type": "uint256"
        }
      ],
      "name": "isBlacklisted",
      "outputs": [
        {
          "name": "",
          "type": "bool"
        }
      ],
      "payable": false,
      "stateMutability": "view",
      "type": "function"
    },
    {
      "constant": false,
      "inputs": [
        {
          "name": "_active",
          "type": "bool"
        }
      ],
      "name": "setActive",
      "outputs": [],
      "payable": false,
      "stateMutability": "nonpayable",
      "type": "function"
    },
    {
      "constant": true,
      "inputs": [
        {
          "name": "_timestamp",
          "type": "uint256"
        }
      ],
      "name": "isActive",
      "outputs": [
        {
          "name": "",
          "type": "bool"
        }
      ],
      "payable": false,
      "stateMutability": "view",
      "type": "function"
    },
    {
      "constant": false,
      "inputs": [],
      "name": "deactivate",
      "outputs": [],
      "payable": false,
      "stateMutability": "nonpayable",
      "type": "function"
    },
    {
      "constant": false,
      "inputs": [
        {
          "name": "_amount",
          "type": "uint256"
        }
      ],
      "name": "stake",
      "outputs": [],
      "payable": false,
      "stateMutability": "nonpayable",
      "type": "function"
    },
    {
      "constant": false,
      "inputs": [
        {
          "name": "_amount",
          "type": "uint256"
        }
      ],
      "name": "unstake",
      "outputs": [],
      "payable": false,
      "stateMutability": "nonpayable",
      "type": "function"
    },
    {
      "constant": true,
      "inputs": [
        {
          "name": "_staker",
          "type": "address"
        },
        {
          "name": "_timestamp",
          "type": "uint256"
        }
      ],
      "name": "stakeOf",
      "outputs": [
        {
          "name": "",
          "type": "uint256"
        }
      ],
      "payable": false,
      "stateMutability": "view",
      "type": "function"
    },
    {
      "constant": true,
      "inputs": [
        {
          "name": "_timestamp",
          "type": "uint256"
        }
      ],
      "name": "getStake",
      "outputs": [
        {
          "name": "",
          "type": "uint256"
        }
      ],
      "payable": false,
      "stateMutability": "view",
      "type": "function"
    },
    {
      "constant": false,
      "inputs": [
        {
          "name": "_id",
          "type": "bytes32"
        },
        {
          "name": "_delegate",
          "type": "address"
        },
        {
          "name": "_blacklisted",
          "type": "bool"
        }
      ],
      "name": "submitBlacklistProposal",
      "outputs": [],
      "payable": false,
      "stateMutability": "nonpayable",
      "type": "function"
    },
    {
      "constant": false,
      "inputs": [
        {
          "name": "_id",
          "type": "bytes32"
        },
        {
          "name": "_inFavor",
          "type": "bool"
        }
      ],
      "name": "vote",
      "outputs": [],
      "payable": false,
      "stateMutability": "nonpayable",
      "type": "function"
    },
    {
      "constant": false,
      "inputs": [
        {
          "name": "_id",
          "type": "bytes32"
        }
      ],
      "name": "finalizeVoting",
      "outputs": [],
      "payable": false,
      "stateMutability": "nonpayable",
      "type": "function"
    },
    {
      "constant": true,
      "inputs": [],
      "name": "getDelegateAerumAddress",
      "outputs": [
        {
          "name": "",
          "type": "address"
        }
      ],
      "payable": false,
      "stateMutability": "view",
      "type": "function"
    },
    {
      "constant": true,
      "inputs": [],
      "name": "getNameAsBytes",
      "outputs": [
        {
          "name": "",
          "type": "bytes32"
        }
      ],
      "payable": false,
      "stateMutability": "view",
      "type": "function"
    }
  ],
  "bytecode": "0x608060405234801561001057600080fd5b50611aa1806100206000396000f3fe608060405234801561001057600080fd5b50600436106101c45760003560e01c806382afd23b116100f9578063c4d66de811610097578063f2fde38b11610071578063f2fde38b146104d5578063fb85278f146104fb578063fbc1b18414610521578063fc0c546a14610547576101c4565b8063c4d66de814610466578063ce325bf81461048c578063ed87169c146104a9576101c4565b8063988397c2116100d3578063988397c2146103bf5780639f2ce67814610405578063a694fc3a1461042a578063acec338a14610447576101c4565b806382afd23b146103925780638da5cb5b146103af5780638f32d59b146103b7576101c4565b8063423307ae1161016657806352919be31161014057806352919be3146103725780635aa6e6751461037a5780635e7afa7d14610382578063715018a61461038a576101c4565b8063423307ae146103155780634752f9ef1461033957806351b42b001461036a576101c4565b80631ec14a31116101a25780631ec14a3114610296578063287342c7146102b55780632e17de78146102db57806338db914c146102f8576101c4565b8063034cd24a146101c957806306fdde03146101ff57806317d7de7c14610219575b600080fd5b6101fd600480360360608110156101df57600080fd5b508035906001600160a01b036020820135169060400135151561054f565b005b6102076105da565b60408051918252519081900360200190f35b6102216105e0565b6040805160208082528351818301528351919283929083019185019080838360005b8381101561025b578181015183820152602001610243565b50505050905090810190601f1680156102885780820380516001836020036101000a031916815260200191505b509250505060405180910390f35b6101fd600480360360208110156102ac57600080fd5b503515156105f2565b6101fd600480360360208110156102cb57600080fd5b50356001600160a01b0316610652565b6101fd600480360360208110156102f157600080fd5b503561072d565b6101fd6004803603602081101561030e57600080fd5b5035610959565b61031d6109c1565b604080516001600160a01b039092168252519081900360200190f35b6103566004803603602081101561034f57600080fd5b50356109d0565b604080519115158252519081900360200190f35b6101fd610a3b565b610207610ab6565b61031d610abc565b61031d610acb565b6101fd610ada565b610356600480360360208110156103a857600080fd5b5035610b35565b61031d610b98565b610356610ba7565b6101fd600480360360a08110156103d557600080fd5b506001600160a01b0381358116916020810135821691604082013581169160608101359160809091013516610bb8565b6101fd6004803603604081101561041b57600080fd5b50803590602001351515610f0a565b6101fd6004803603602081101561044057600080fd5b5035610f8c565b6101fd6004803603602081101561045d57600080fd5b50351515611158565b6101fd6004803603602081101561047c57600080fd5b50356001600160a01b03166111b8565b610207600480360360208110156104a257600080fd5b50356112aa565b610207600480360360408110156104bf57600080fd5b506001600160a01b03813516906020013561130d565b6101fd600480360360208110156104eb57600080fd5b50356001600160a01b0316611389565b61031d6004803603602081101561051157600080fd5b50356001600160a01b03166113a6565b61031d6004803603602081101561053757600080fd5b50356001600160a01b03166113c4565b61031d6113df565b610557610ba7565b61056057600080fd5b609b54604080516301a6692560e11b8152600481018690526001600160a01b03858116602483015284151560448301529151919092169163034cd24a91606480830192600092919082900301818387803b1580156105bd57600080fd5b505af11580156105d1573d6000803e3d6000fd5b50505050505050565b609d5481565b60606105ed609d546113ee565b905090565b609b546001600160a01b0316331461060957600080fd5b61061a60a18263ffffffff6114f716565b60408051821515815290517f7dc357bd865f9219c544a8b0b14cb1583b26e3ffe765b3396ef2051d81a8de569181900360200190a150565b33600090815260a06020908152604080832080548251818502810185019093528083526106c09342939291908301828280156106ad57602002820191906000526020600020905b815481526020019060010190808311610699575b505050505061152390919063ffffffff16565b116106ca57600080fd5b336000908152609e602090815260409182902080546001600160a01b0319166001600160a01b038516908117909155825190815291517f4256454ee4454322788b33ff55f2936a2971c4b92a1cc8c43f3df40a31a040c09281900390910190a150565b33600081815260a06020908152604080832080548251818502810185019093528083526107999342939291908301828280156106ad576020028201919060005260206000209081548152602001906001019080831161069957505050505061152390919063ffffffff16565b9050828110156107a857600080fd5b609a54604080516370a0823160e01b815230600482015290516000926108349287926001600160a01b03909216916370a0823191602480820192602092909190829003018186803b1580156107fc57600080fd5b505afa158015610810573d6000803e3d6000fd5b505050506040513d602081101561082657600080fd5b50519063ffffffff61156316565b101561083f57600080fd5b610876610852828563ffffffff61156316565b6001600160a01b038416600090815260a0602052604090209063ffffffff6115c016565b6108f86108ea846108de42609f8054806020026020016040519081016040528092919081815260200182805480156106ad576020028201919060005260206000209081548152602001906001019080831161069957505050505061152390919063ffffffff16565b9063ffffffff61156316565b609f9063ffffffff6115c016565b609a54610915906001600160a01b0316838563ffffffff6115e916565b6040805184815290516001600160a01b038416917f0f5bb82176feb1b5e747e28471aa92156a04d9f3ab9f45f28e2d704232b93f75919081900360200190a2505050565b609b5460408051630e36e45360e21b81526004810184905290516001600160a01b03909216916338db914c9160248082019260009290919082900301818387803b1580156109a657600080fd5b505af11580156109ba573d6000803e3d6000fd5b5050505050565b609c546001600160a01b031690565b6000610a358260a1805480602002602001604051908101604052809291908181526020018280548015610a2257602002820191906000526020600020905b815481526020019060010190808311610a0e575b505050505061163b90919063ffffffff16565b92915050565b610a43610ba7565b610a4c57600080fd5b609b60009054906101000a90046001600160a01b03166001600160a01b031663aa617fac6040518163ffffffff1660e01b8152600401600060405180830381600087803b158015610a9c57600080fd5b505af1158015610ab0573d6000803e3d6000fd5b50505050565b609d5490565b609b546001600160a01b031681565b609c546001600160a01b031681565b610ae2610ba7565b610aeb57600080fd5b6067546040516000916001600160a01b0316907f8be0079c531659141344cd1fd0a4f28419497f9722a3daafe3b4186f6b6457e0908390a3606780546001600160a01b0319169055565b6000610a358260a2805480602002602001604051908101604052809291908181526020018280548015610a225760200282019190600052602060002090815481526020019060010190808311610a0e57505050505061163b90919063ffffffff16565b6067546001600160a01b031690565b6067546001600160a01b0316331490565b60405180604001604052806002815260200161763160f01b8152506001816040518082805190602001908083835b60208310610c055780518252601f199092019160209182019101610be6565b51815160209384036101000a600019018019909216911617905292019485525060405193849003019092205460ff169150819050610c465750610c4661165e565b80610cb257506000816040518082805190602001908083835b60208310610c7e5780518252601f199092019160209182019101610c5f565b51815160209384036101000a600019018019909216911617905292019485525060405193849003019092205460ff16159150505b610ced5760405162461bcd60e51b815260040180806020018281038252602e815260200180611a15602e913960400191505060405180910390fd5b60006001826040518082805190602001908083835b60208310610d215780518252601f199092019160209182019101610d02565b51815160209384036101000a600019018019909216911617905292019485525060405193849003019092205460ff161592505081159050610e3f57600180836040518082805190602001908083835b60208310610d8f5780518252601f199092019160209182019101610d70565b51815160209384036101000a60001901801990921691161790529201948552506040519384900381018420805460ff19169515159590951790945550508351600192600092869290918291908401908083835b60208310610e015780518252601f199092019160209182019101610de2565b51815160209384036101000a60001901801990921691161790529201948552506040519384900301909220805460ff19169315159390931790925550505b610e48876111b8565b609a80546001600160a01b038089166001600160a01b031992831617909255609d869055609c8054868416908316179055609b80549288169290911691909117905580156105d15760006001836040518082805190602001908083835b60208310610ec45780518252601f199092019160209182019101610ea5565b51815160209384036101000a60001901801990921691161790529201948552506040519384900301909220805460ff191693151593909317909255505050505050505050565b610f12610ba7565b610f1b57600080fd5b609b54604080516313e59ccf60e31b815260048101859052831515602482015290516001600160a01b0390921691639f2ce6789160448082019260009290919082900301818387803b158015610f7057600080fd5b505af1158015610f84573d6000803e3d6000fd5b505050505050565b610fed4260a2805480602002602001604051908101604052809291908181526020018280548015610a225760200282019190600052602060002090815481526020019060010190808311610a0e57505050505061163b90919063ffffffff16565b610ff657600080fd5b609a543390611016906001600160a01b031682308563ffffffff61166416565b6001600160a01b038116600090815260a060209081526040808320805482518185028101850190935280835261108b9342939291908301828280156106ad576020028201919060005260206000209081548152602001906001019080831161069957505050505061152390919063ffffffff16565b90506110a0610852828563ffffffff6116be16565b6111146108ea8461110842609f8054806020026020016040519081016040528092919081815260200182805480156106ad576020028201919060005260206000209081548152602001906001019080831161069957505050505061152390919063ffffffff16565b9063ffffffff6116be16565b6040805184815290516001600160a01b038416917f9e71bc8eea02a63969f509818f2dafb9254532904319f9dbda79b67bd34a5f3d919081900360200190a2505050565b609b546001600160a01b0316331461116f57600080fd5b61118060a28263ffffffff6114f716565b60408051821515815290517f056de63701f7b0a4905fbf7f9173cfbddcd54a25cbb5d7fbd5d7bd0f9abc5fd39181900360200190a150565b603454610100900460ff16806111d157506111d161165e565b806111df575060345460ff16155b61121a5760405162461bcd60e51b815260040180806020018281038252602e815260200180611a15602e913960400191505060405180910390fd5b603454610100900460ff16158015611245576034805460ff1961ff0019909116610100171660011790555b606780546001600160a01b0319166001600160a01b0384811691909117918290556040519116906000907f8be0079c531659141344cd1fd0a4f28419497f9722a3daafe3b4186f6b6457e0908290a380156112a6576034805461ff00191690555b5050565b6000610a3582609f8054806020026020016040519081016040528092919081815260200182805480156106ad576020028201919060005260206000209081548152602001906001019080831161069957505050505061152390919063ffffffff16565b6001600160a01b038216600090815260a06020908152604080832080548251818502810185019093528083526113829386939291908301828280156106ad576020028201919060005260206000209081548152602001906001019080831161069957505050505061152390919063ffffffff16565b9392505050565b611391610ba7565b61139a57600080fd5b6113a381611718565b50565b6001600160a01b039081166000908152609e60205260409020541690565b609e602052600090815260409020546001600160a01b031681565b609a546001600160a01b031681565b6040805160208082528183019092526060918291906020820181803883390190505090506000805b602081101561146c576008810260020a85026001600160f81b0319811615611463578084848151811061144557fe5b60200101906001600160f81b031916908160001a9053506001909201915b50600101611416565b6060826040519080825280601f01601f191660200182016040528015611499576020820181803883390190505b509050600091505b828210156114ee578382815181106114b557fe5b602001015160f81c60f81b8183815181106114cc57fe5b60200101906001600160f81b031916908160001a9053506001909101906114a1565b95945050505050565b8154600190811614811515811461151e578254600181018455600084815260209020429101555b505050565b60008061153284846002611787565b905080156115595783600182038151811061154957fe5b6020026020010151915050610a35565b5060009392505050565b6000828211156115ba576040805162461bcd60e51b815260206004820152601e60248201527f536166654d6174683a207375627472616374696f6e206f766572666c6f770000604482015290519081900360640190fd5b50900390565b815460018181018455600084815260209020429281019290925583549081019093559190910155565b604080516001600160a01b038416602482015260448082018490528251808303909101815260649091019091526020810180516001600160e01b031663a9059cbb60e01b17905261151e908490611856565b6000600261164b84846001611787565b8161165257fe5b06600114905092915050565b303b1590565b604080516001600160a01b0385811660248301528416604482015260648082018490528251808303909101815260849091019091526020810180516001600160e01b03166323b872dd60e01b179052610ab0908590611856565b600082820183811015611382576040805162461bcd60e51b815260206004820152601b60248201527f536166654d6174683a206164646974696f6e206f766572666c6f770000000000604482015290519081900360640190fd5b6001600160a01b03811661172b57600080fd5b6067546040516001600160a01b038084169216907f8be0079c531659141344cd1fd0a4f28419497f9722a3daafe3b4186f6b6457e090600090a3606780546001600160a01b0319166001600160a01b0392909216919091179055565b600083516000141561179b57506000611382565b83516000908390035b80821161184d578551828201851c60001986011b906000908890839081106117c857fe5b60200260200101519050868110156117e4578582019350611846565b8681111561180857816117fe576000945050505050611382565b8582039250611846565b8186015b88518110801561182e57508789828151811061182457fe5b6020026020010151145b1561183a57860161180c565b94506113829350505050565b50506117a4565b50949350505050565b611868826001600160a01b0316611a0e565b6118b9576040805162461bcd60e51b815260206004820152601f60248201527f5361666545524332303a2063616c6c20746f206e6f6e2d636f6e747261637400604482015290519081900360640190fd5b60006060836001600160a01b0316836040518082805190602001908083835b602083106118f75780518252601f1990920191602091820191016118d8565b6001836020036101000a0380198251168184511680821785525050505050509050019150506000604051808303816000865af19150503d8060008114611959576040519150601f19603f3d011682016040523d82523d6000602084013e61195e565b606091505b5091509150816119b5576040805162461bcd60e51b815260206004820181905260248201527f5361666545524332303a206c6f772d6c6576656c2063616c6c206661696c6564604482015290519081900360640190fd5b805115610ab0578080602001905160208110156119d157600080fd5b5051610ab05760405162461bcd60e51b815260040180806020018281038252602a815260200180611a43602a913960400191505060405180910390fd5b3b15159056fe436f6e747261637420696e7374616e63652068617320616c7265616479206265656e20696e697469616c697a65645361666545524332303a204552433230206f7065726174696f6e20646964206e6f742073756363656564a265627a7a72305820deea11dd795523d27ce87b17966f52421204018561072ad2f1ee94ee3529529664736f6c634300050a0032",
  "source": "pragma solidity 0.5.10;\r\n\r\nimport \"openzeppelin-solidity/contracts/token/ERC20/SafeERC20.sol\";\r\nimport \"openzeppelin-solidity/contracts/token/ERC20/ERC20.sol\";\r\nimport \"openzeppelin-solidity/contracts/math/SafeMath.sol\";\r\nimport \"openzeppelin-eth/contracts/ownership/Ownable.sol\";\r\n\r\nimport \"./IGovernance.sol\";\r\nimport \"./IDelegate.sol\";\r\nimport \"../library/OperationStore.sol\";\r\nimport \"../library/Conversions.sol\";\r\nimport \"../upgradeability/ParameterizedInitializable.sol\";\r\n\r\n/**\r\n * @title Ethereum-based contract for delegate\r\n */\r\ncontract Delegate is IDelegate, ParameterizedInitializable, Ownable {\r\n    using SafeMath for uint256;\r\n    using SafeERC20 for ERC20;\r\n    using OperationStore for uint256[];\r\n    using Conversions for bytes32;\r\n\r\n    /** AER token **/\r\n    ERC20 public token;\r\n\r\n    /** Governance address **/\r\n    IGovernance public governance;\r\n\r\n    /** Aerum address used for coin distribution **/\r\n    address public aerum;\r\n\r\n    /** Description name of the delegate **/\r\n    bytes32 public name;\r\n\r\n    /** Aerum address per ethereum address in the delegate **/\r\n    mapping(address => address) public stakerAerumAddress;\r\n\r\n    /** Stake in the delegate **/\r\n    uint256[] stakeDelegate;\r\n\r\n    /** Stake per user address in the delegate **/\r\n    mapping(address => uint256[]) stakeHistory;\r\n    uint256[] blacklistHistory;\r\n    uint256[] activationHistory;\r\n\r\n    event AerumAddressUpdated(address aerum);\r\n    event BlacklistUpdated(bool blocked);\r\n    event IsActiveUpdated(bool active);\r\n\r\n    event Staked(address indexed staker, uint256 amount);\r\n    event Unstaked(address indexed staker, uint256 amount);\r\n\r\n    /** Check if the sender is a valid delegate **/\r\n    modifier onlyGovernance {\r\n        require(msg.sender == address(governance));\r\n        _;\r\n    }\r\n\r\n    /** Check if the sender is a valid delegate or owner **/\r\n    modifier onlyOwnerOrGovernance {\r\n        require((msg.sender == address(governance)) || (msg.sender == owner()));\r\n        _;\r\n    }\r\n\r\n    /** Check if delegate is approved **/\r\n    modifier onlyForApprovedDelegate() {\r\n        require(activationHistory.getBool(block.timestamp));\r\n        _;\r\n    }\r\n\r\n    /**\r\n    * @notice Delegate initializer\r\n    * @dev This init is called by governance when created\r\n    * @param _owner Delegate owner address\r\n    * @param _token XRM token address\r\n    * @param _governance Governance address\r\n    * @param _name Delegate name\r\n    * @param _aerum Delegate Aerum address\r\n    */\r\n    function init(address _owner, ERC20 _token, address _governance, bytes32 _name, address _aerum) initiator(\"v1\") public {\r\n        Ownable.initialize(_owner);\r\n        token = _token;\r\n        name = _name;\r\n        aerum = _aerum;\r\n        governance = IGovernance(_governance);\r\n    }\r\n\r\n    /**\r\n    * @notice Returns delegate name as string\r\n    */\r\n    function getName() public view returns (string memory) {\r\n        return name.bytes32ToString();\r\n    }\r\n\r\n    /**\r\n    * @notice Sets Aerum address for specific staker\r\n    * @param _aerum Aerum address\r\n    */\r\n    function setAerumAddress(address _aerum) external {\r\n        require(stakeHistory[msg.sender].getInt(block.timestamp) > 0);\r\n        stakerAerumAddress[msg.sender] = _aerum;\r\n        emit AerumAddressUpdated(_aerum);\r\n    }\r\n\r\n    /**\r\n    * @notice Returns Aerum address for specific staker\r\n    * @param _staker Staker address\r\n    */\r\n    function getAerumAddress(address _staker) external view returns (address) {\r\n        return stakerAerumAddress[_staker];\r\n    }\r\n\r\n    /**\r\n    * @notice Change delegate status in the blacklist\r\n    * @param _blocked Is delegate blacklisted or not\r\n    */\r\n    function updateBlacklist(bool _blocked) external onlyGovernance {\r\n        blacklistHistory.storeBool(_blocked);\r\n        emit BlacklistUpdated(_blocked);\r\n    }\r\n\r\n    /**\r\n    * @notice Whether this delegate was blacklisted at the given timestamp\r\n    * @param _timestamp Time for which we would like to check blacklisted\r\n    */\r\n    function isBlacklisted(uint256 _timestamp) public view returns (bool) {\r\n        return blacklistHistory.getBool(_timestamp);\r\n    }\r\n\r\n    /**\r\n    * @notice Change delegate activations status\r\n    * @param _active Is delegate active or not\r\n    */\r\n    function setActive(bool _active) external onlyGovernance {\r\n        activationHistory.storeBool(_active);\r\n        emit IsActiveUpdated(_active);\r\n    }\r\n\r\n    /**\r\n    * @notice Whether this delegate was activated at the given timestamp\r\n    * @param _timestamp Time for which we would like to check activation status\r\n    */\r\n    function isActive(uint256 _timestamp) external view returns (bool) {\r\n        return activationHistory.getBool(_timestamp);\r\n    }\r\n\r\n    /**\r\n    * @notice Deactivate delegate and return bond back\r\n    */\r\n    function deactivate() external onlyOwner {\r\n        governance.unregisterDelegate();\r\n    }\r\n\r\n    /**\r\n    * @notice Stake specified amount of tokens to the delegate to participate in coin distribution\r\n    * @param _amount Amount to stake\r\n    */\r\n    function stake(uint256 _amount) external onlyForApprovedDelegate() {\r\n        address staker = msg.sender;\r\n        token.safeTransferFrom(staker, address(this), _amount);\r\n        uint256 stakeAtTimestamp = stakeHistory[staker].getInt(block.timestamp);\r\n        stakeHistory[staker].storeInt(stakeAtTimestamp.add(_amount));\r\n        stakeDelegate.storeInt(stakeDelegate.getInt(block.timestamp).add(_amount));\r\n        emit Staked(staker, _amount);\r\n    }\r\n\r\n    /**\r\n    * @notice Unstake specified amount of tokens from the delegate\r\n    * @param _amount Amount to unstake\r\n    */\r\n    function unstake(uint256 _amount) external {\r\n        address staker = msg.sender;\r\n        uint256 stakeAtTimestamp = stakeHistory[staker].getInt(block.timestamp);\r\n        require(stakeAtTimestamp >= _amount);\r\n        require(token.balanceOf(address(this)).sub(_amount) >= 0);\r\n        stakeHistory[staker].storeInt(stakeAtTimestamp.sub(_amount));\r\n        stakeDelegate.storeInt(stakeDelegate.getInt(block.timestamp).sub(_amount));\r\n        token.safeTransfer(staker, _amount);\r\n        emit Unstaked(staker, _amount);\r\n    }\r\n\r\n    /**\r\n    * @notice Return number of tokens staked by the specified staker\r\n    * @param _staker Staker address\r\n    * @param _timestamp Time for which we would like to check stake\r\n    */\r\n    function stakeOf(address _staker, uint256 _timestamp) external view returns (uint256) {\r\n        return stakeHistory[_staker].getInt(_timestamp);\r\n    }\r\n\r\n    /**\r\n    * @notice Delegate stake at the given timestamp\r\n    * @param _timestamp Time for which we would like to check stake\r\n    */\r\n    function getStake(uint256 _timestamp) public view returns (uint256) {\r\n        return stakeDelegate.getInt(_timestamp);\r\n    }\r\n\r\n    /**\r\n    * @notice Make a proposal to add/remove specified delegate to the blacklist\r\n    * @param _id Proposal / voting id. Should be unique\r\n    * @param _delegate Delegate which is affected by proposal\r\n    * @param _blacklisted Blacklist or undo blacklist delegate\r\n    */\r\n    function submitBlacklistProposal(bytes32 _id, address _delegate, bool _blacklisted) external onlyOwner {\r\n        governance.submitBlacklistProposal(_id, _delegate, _blacklisted);\r\n    }\r\n\r\n    /**\r\n    * @notice Vote in favor or against blacklist proposal with the specified identifier\r\n    * @param _id Proposal / voting id\r\n    * @param _inFavor Support or do not support proposal\r\n    */\r\n    function vote(bytes32 _id, bool _inFavor) external onlyOwner {\r\n        governance.vote(_id, _inFavor);\r\n    }\r\n\r\n    /**\r\n    * @notice Finalize voting and apply proposed changes if success.\r\n    * This method will fail if voting period is not over.\r\n    * @param _id Proposal / voting id\r\n    */\r\n    function finalizeVoting(bytes32 _id) external {\r\n        governance.finalizeVoting(_id);\r\n    }\r\n\r\n    /**\r\n    * @notice Returns delegate's Aerum address\r\n    */\r\n    function getDelegateAerumAddress() external view returns (address) {\r\n        return aerum;\r\n    }\r\n\r\n    /**\r\n    * @notice Returns delegate's name as bytes32\r\n    */\r\n    function getNameAsBytes() external view returns (bytes32) {\r\n        return name;\r\n    }\r\n}\r\n",
  "sourcePath": "C:\\Projects\\Aerum\\aerumnet\\governance\\contracts\\governance\\Delegate.sol",
  "compiler": {
    "name": "solc",
    "version": "0.5.10+commit.5a6ea5b1.Emscripten.clang"
  },
  "schemaVersion": "3.0.11",
  "updatedAt": "2019-07-19T08:44:50.652Z",
  "devdoc": {
    "methods": {
      "finalizeVoting(bytes32)": {
        "params": {
          "_id": "Proposal / voting id\r"
        }
      },
      "getAerumAddress(address)": {
        "params": {
          "_staker": "Staker address\r"
        }
      },
      "getStake(uint256)": {
        "params": {
          "_timestamp": "Time for which we would like to check stake\r"
        }
      },
      "init(address,address,address,bytes32,address)": {
        "details": "This init is called by governance when created\r",
        "params": {
          "_aerum": "Delegate Aerum address\r",
          "_governance": "Governance address\r",
          "_name": "Delegate name\r",
          "_owner": "Delegate owner address\r",
          "_token": "XRM token address\r"
        }
      },
      "initialize(address)": {
        "details": "The Ownable constructor sets the original `owner` of the contract to the sender account."
      },
      "isActive(uint256)": {
        "params": {
          "_timestamp": "Time for which we would like to check activation status\r"
        }
      },
      "isBlacklisted(uint256)": {
        "params": {
          "_timestamp": "Time for which we would like to check blacklisted\r"
        }
      },
      "isOwner()": {
        "return": "true if `msg.sender` is the owner of the contract."
      },
      "owner()": {
        "return": "the address of the owner."
      },
      "renounceOwnership()": {
        "details": "Allows the current owner to relinquish control of the contract. It will not be possible to call the functions with the `onlyOwner` modifier anymore."
      },
      "setActive(bool)": {
        "params": {
          "_active": "Is delegate active or not\r"
        }
      },
      "setAerumAddress(address)": {
        "params": {
          "_aerum": "Aerum address\r"
        }
      },
      "stake(uint256)": {
        "params": {
          "_amount": "Amount to stake\r"
        }
      },
      "stakeOf(address,uint256)": {
        "params": {
          "_staker": "Staker address\r",
          "_timestamp": "Time for which we would like to check stake\r"
        }
      },
      "submitBlacklistProposal(bytes32,address,bool)": {
        "params": {
          "_blacklisted": "Blacklist or undo blacklist delegate\r",
          "_delegate": "Delegate which is affected by proposal\r",
          "_id": "Proposal / voting id. Should be unique\r"
        }
      },
      "transferOwnership(address)": {
        "details": "Allows the current owner to transfer control of the contract to a newOwner.",
        "params": {
          "newOwner": "The address to transfer ownership to."
        }
      },
      "unstake(uint256)": {
        "params": {
          "_amount": "Amount to unstake\r"
        }
      },
      "updateBlacklist(bool)": {
        "params": {
          "_blocked": "Is delegate blacklisted or not\r"
        }
      },
      "vote(bytes32,bool)": {
        "params": {
          "_id": "Proposal / voting id\r",
          "_inFavor": "Support or do not support proposal\r"
        }
      }
    },
    "title": "Ethereum-based contract for delegate\r"
  },
  "userdoc": {
    "methods": {
      "deactivate()": {
        "notice": "Deactivate delegate and return bond back\r"
      },
      "finalizeVoting(bytes32)": {
        "notice": "Finalize voting and apply proposed changes if success.\r This method will fail if voting period is not over.\r"
      },
      "getAerumAddress(address)": {
        "notice": "Returns Aerum address for specific staker\r"
      },
      "getDelegateAerumAddress()": {
        "notice": "Returns delegate's Aerum address\r"
      },
      "getName()": {
        "notice": "Returns delegate name as string\r"
      },
      "getNameAsBytes()": {
        "notice": "Returns delegate's name as bytes32\r"
      },
      "getStake(uint256)": {
        "notice": "Delegate stake at the given timestamp\r"
      },
      "init(address,address,address,bytes32,address)": {
        "notice": "Delegate initializer\r"
      },
      "isActive(uint256)": {
        "notice": "Whether this delegate was activated at the given timestamp\r"
      },
      "isBlacklisted(uint256)": {
        "notice": "Whether this delegate was blacklisted at the given timestamp\r"
      },
      "renounceOwnership()": {
        "notice": "Renouncing ownership will leave the contract without an owner, thereby removing any functionality that is only available to the owner."
      },
      "setActive(bool)": {
        "notice": "Change delegate activations status\r"
      },
      "setAerumAddress(address)": {
        "notice": "Sets Aerum address for specific staker\r"
      },
      "stake(uint256)": {
        "notice": "Stake specified amount of tokens to the delegate to participate in coin distribution\r"
      },
      "stakeOf(address,uint256)": {
        "notice": "Return number of tokens staked by the specified staker\r"
      },
      "submitBlacklistProposal(bytes32,address,bool)": {
        "notice": "Make a proposal to add/remove specified delegate to the blacklist\r"
      },
      "unstake(uint256)": {
        "notice": "Unstake specified amount of tokens from the delegate\r"
      },
      "updateBlacklist(bool)": {
        "notice": "Change delegate status in the blacklist\r"
      },
      "vote(bytes32,bool)": {
        "notice": "Vote in favor or against blacklist proposal with the specified identifier\r"
      }
    }
  }
}