{
  "contractName": "Governance",
  "abi": [
    {
      "constant": true,
      "inputs": [
        {
          "name": "",
          "type": "bytes32"
        }
      ],
      "name": "votings",
      "outputs": [
        {
          "name": "id",
          "type": "bytes32"
        },
        {
          "name": "category",
          "type": "uint8"
        },
        {
          "name": "timestamp",
          "type": "uint256"
        },
        {
          "name": "delegate",
          "type": "address"
        },
        {
          "name": "proposal",
          "type": "bool"
        }
      ],
      "payable": false,
      "stateMutability": "view",
      "type": "function"
    },
    {
      "constant": false,
      "inputs": [],
      "name": "renounceOwnership",
      "outputs": [],
      "payable": false,
      "stateMutability": "nonpayable",
      "type": "function"
    },
    {
      "constant": true,
      "inputs": [],
      "name": "owner",
      "outputs": [
        {
          "name": "",
          "type": "address"
        }
      ],
      "payable": false,
      "stateMutability": "view",
      "type": "function"
    },
    {
      "constant": true,
      "inputs": [],
      "name": "isOwner",
      "outputs": [
        {
          "name": "",
          "type": "bool"
        }
      ],
      "payable": false,
      "stateMutability": "view",
      "type": "function"
    },
    {
      "constant": true,
      "inputs": [
        {
          "name": "",
          "type": "address"
        }
      ],
      "name": "knownDelegates",
      "outputs": [
        {
          "name": "",
          "type": "bool"
        }
      ],
      "payable": false,
      "stateMutability": "view",
      "type": "function"
    },
    {
      "constant": true,
      "inputs": [
        {
          "name": "",
          "type": "uint256"
        }
      ],
      "name": "delegates",
      "outputs": [
        {
          "name": "",
          "type": "address"
        }
      ],
      "payable": false,
      "stateMutability": "view",
      "type": "function"
    },
    {
      "constant": true,
      "inputs": [
        {
          "name": "",
          "type": "uint256"
        }
      ],
      "name": "composersCount",
      "outputs": [
        {
          "name": "",
          "type": "uint256"
        }
      ],
      "payable": false,
      "stateMutability": "view",
      "type": "function"
    },
    {
      "constant": true,
      "inputs": [],
      "name": "delegateFactory",
      "outputs": [
        {
          "name": "",
          "type": "address"
        }
      ],
      "payable": false,
      "stateMutability": "view",
      "type": "function"
    },
    {
      "constant": true,
      "inputs": [],
      "name": "upgradeAdmin",
      "outputs": [
        {
          "name": "",
          "type": "address"
        }
      ],
      "payable": false,
      "stateMutability": "view",
      "type": "function"
    },
    {
      "constant": false,
      "inputs": [
        {
          "name": "sender",
          "type": "address"
        }
      ],
      "name": "initialize",
      "outputs": [],
      "payable": false,
      "stateMutability": "nonpayable",
      "type": "function"
    },
    {
      "constant": false,
      "inputs": [
        {
          "name": "newOwner",
          "type": "address"
        }
      ],
      "name": "transferOwnership",
      "outputs": [],
      "payable": false,
      "stateMutability": "nonpayable",
      "type": "function"
    },
    {
      "constant": true,
      "inputs": [],
      "name": "delegateBond",
      "outputs": [
        {
          "name": "",
          "type": "uint256"
        }
      ],
      "payable": false,
      "stateMutability": "view",
      "type": "function"
    },
    {
      "constant": true,
      "inputs": [],
      "name": "token",
      "outputs": [
        {
          "name": "",
          "type": "address"
        }
      ],
      "payable": false,
      "stateMutability": "view",
      "type": "function"
    },
    {
      "constant": true,
      "inputs": [
        {
          "name": "",
          "type": "address"
        }
      ],
      "name": "bonds",
      "outputs": [
        {
          "name": "",
          "type": "uint256"
        }
      ],
      "payable": false,
      "stateMutability": "view",
      "type": "function"
    },
    {
      "anonymous": false,
      "inputs": [
        {
          "indexed": false,
          "name": "admin",
          "type": "address"
        }
      ],
      "name": "UpgradeAdminUpdated",
      "type": "event"
    },
    {
      "anonymous": false,
      "inputs": [
        {
          "indexed": false,
          "name": "count",
          "type": "uint256"
        }
      ],
      "name": "ComposersCountUpdated",
      "type": "event"
    },
    {
      "anonymous": false,
      "inputs": [
        {
          "indexed": true,
          "name": "delegate",
          "type": "address"
        },
        {
          "indexed": false,
          "name": "blocked",
          "type": "bool"
        }
      ],
      "name": "BlacklistUpdated",
      "type": "event"
    },
    {
      "anonymous": false,
      "inputs": [
        {
          "indexed": true,
          "name": "delegate",
          "type": "address"
        },
        {
          "indexed": true,
          "name": "owner",
          "type": "address"
        }
      ],
      "name": "DelegateCreated",
      "type": "event"
    },
    {
      "anonymous": false,
      "inputs": [
        {
          "indexed": true,
          "name": "delegate",
          "type": "address"
        }
      ],
      "name": "DelegateUnregistered",
      "type": "event"
    },
    {
      "anonymous": false,
      "inputs": [
        {
          "indexed": true,
          "name": "delegate",
          "type": "address"
        },
        {
          "indexed": false,
          "name": "amount",
          "type": "uint256"
        }
      ],
      "name": "BondSent",
      "type": "event"
    },
    {
      "anonymous": false,
      "inputs": [
        {
          "indexed": true,
          "name": "id",
          "type": "bytes32"
        },
        {
          "indexed": true,
          "name": "author",
          "type": "address"
        },
        {
          "indexed": true,
          "name": "delegate",
          "type": "address"
        },
        {
          "indexed": false,
          "name": "category",
          "type": "uint8"
        },
        {
          "indexed": false,
          "name": "proposal",
          "type": "bool"
        }
      ],
      "name": "ProposalSubmitted",
      "type": "event"
    },
    {
      "anonymous": false,
      "inputs": [
        {
          "indexed": true,
          "name": "id",
          "type": "bytes32"
        },
        {
          "indexed": true,
          "name": "voter",
          "type": "address"
        },
        {
          "indexed": false,
          "name": "inFavor",
          "type": "bool"
        }
      ],
      "name": "Vote",
      "type": "event"
    },
    {
      "anonymous": false,
      "inputs": [
        {
          "indexed": true,
          "name": "id",
          "type": "bytes32"
        },
        {
          "indexed": false,
          "name": "voted",
          "type": "bool"
        },
        {
          "indexed": false,
          "name": "supported",
          "type": "bool"
        },
        {
          "indexed": false,
          "name": "proponentsWeight",
          "type": "uint256"
        },
        {
          "indexed": false,
          "name": "opponentsWeight",
          "type": "uint256"
        }
      ],
      "name": "VotingFinalized",
      "type": "event"
    },
    {
      "anonymous": false,
      "inputs": [
        {
          "indexed": true,
          "name": "previousOwner",
          "type": "address"
        },
        {
          "indexed": true,
          "name": "newOwner",
          "type": "address"
        }
      ],
      "name": "OwnershipTransferred",
      "type": "event"
    },
    {
      "constant": false,
      "inputs": [
        {
          "name": "_owner",
          "type": "address"
        },
        {
          "name": "_token",
          "type": "address"
        },
        {
          "name": "_delegateFactory",
          "type": "address"
        },
        {
          "name": "_delegatesLimit",
          "type": "uint256"
        },
        {
          "name": "_delegateBond",
          "type": "uint256"
        }
      ],
      "name": "init",
      "outputs": [],
      "payable": false,
      "stateMutability": "nonpayable",
      "type": "function"
    },
    {
      "constant": false,
      "inputs": [
        {
          "name": "_votingPeriod",
          "type": "uint256"
        }
      ],
      "name": "setVotingPeriod",
      "outputs": [],
      "payable": false,
      "stateMutability": "nonpayable",
      "type": "function"
    },
    {
      "constant": false,
      "inputs": [
        {
          "name": "_admin",
          "type": "address"
        }
      ],
      "name": "setUpgradeAdmin",
      "outputs": [],
      "payable": false,
      "stateMutability": "nonpayable",
      "type": "function"
    },
    {
      "constant": false,
      "inputs": [
        {
          "name": "_count",
          "type": "uint256"
        }
      ],
      "name": "setComposersCount",
      "outputs": [],
      "payable": false,
      "stateMutability": "nonpayable",
      "type": "function"
    },
    {
      "constant": false,
      "inputs": [
        {
          "name": "_delegate",
          "type": "address"
        },
        {
          "name": "_blocked",
          "type": "bool"
        }
      ],
      "name": "updateBlacklist",
      "outputs": [],
      "payable": false,
      "stateMutability": "nonpayable",
      "type": "function"
    },
    {
      "constant": true,
      "inputs": [
        {
          "name": "_timestamp",
          "type": "uint256"
        }
      ],
      "name": "getComposersCount",
      "outputs": [
        {
          "name": "",
          "type": "uint256"
        }
      ],
      "payable": false,
      "stateMutability": "view",
      "type": "function"
    },
    {
      "constant": false,
      "inputs": [
        {
          "name": "_name",
          "type": "bytes32"
        },
        {
          "name": "_aerum",
          "type": "address"
        }
      ],
      "name": "createDelegate",
      "outputs": [
        {
          "name": "",
          "type": "address"
        }
      ],
      "payable": false,
      "stateMutability": "nonpayable",
      "type": "function"
    },
    {
      "constant": false,
      "inputs": [],
      "name": "unregisterDelegate",
      "outputs": [],
      "payable": false,
      "stateMutability": "nonpayable",
      "type": "function"
    },
    {
      "constant": false,
      "inputs": [
        {
          "name": "_delegate",
          "type": "address"
        },
        {
          "name": "_amount",
          "type": "uint256"
        }
      ],
      "name": "sendBond",
      "outputs": [],
      "payable": false,
      "stateMutability": "nonpayable",
      "type": "function"
    },
    {
      "constant": true,
      "inputs": [
        {
          "name": "_delegate",
          "type": "address"
        }
      ],
      "name": "isDelegateKnown",
      "outputs": [
        {
          "name": "",
          "type": "bool"
        }
      ],
      "payable": false,
      "stateMutability": "view",
      "type": "function"
    },
    {
      "constant": true,
      "inputs": [
        {
          "name": "_blockNum",
          "type": "uint256"
        },
        {
          "name": "_timestamp",
          "type": "uint256"
        }
      ],
      "name": "getComposers",
      "outputs": [
        {
          "name": "",
          "type": "address[]"
        }
      ],
      "payable": false,
      "stateMutability": "view",
      "type": "function"
    },
    {
      "constant": true,
      "inputs": [],
      "name": "getDelegates",
      "outputs": [
        {
          "name": "",
          "type": "address[]"
        }
      ],
      "payable": false,
      "stateMutability": "view",
      "type": "function"
    },
    {
      "constant": true,
      "inputs": [],
      "name": "getDelegateCount",
      "outputs": [
        {
          "name": "",
          "type": "uint256"
        }
      ],
      "payable": false,
      "stateMutability": "view",
      "type": "function"
    },
    {
      "constant": true,
      "inputs": [
        {
          "name": "_timestamp",
          "type": "uint256"
        }
      ],
      "name": "getValidDelegates",
      "outputs": [
        {
          "name": "",
          "type": "address[]"
        },
        {
          "name": "",
          "type": "bytes32[]"
        }
      ],
      "payable": false,
      "stateMutability": "view",
      "type": "function"
    },
    {
      "constant": true,
      "inputs": [],
      "name": "getValidDelegateCount",
      "outputs": [
        {
          "name": "",
          "type": "uint256"
        }
      ],
      "payable": false,
      "stateMutability": "view",
      "type": "function"
    },
    {
      "constant": true,
      "inputs": [
        {
          "name": "_delegate",
          "type": "address"
        },
        {
          "name": "_timestamp",
          "type": "uint256"
        }
      ],
      "name": "isDelegateValid",
      "outputs": [
        {
          "name": "",
          "type": "bool"
        }
      ],
      "payable": false,
      "stateMutability": "view",
      "type": "function"
    },
    {
      "constant": false,
      "inputs": [
        {
          "name": "_id",
          "type": "bytes32"
        },
        {
          "name": "_delegate",
          "type": "address"
        },
        {
          "name": "_proposal",
          "type": "bool"
        }
      ],
      "name": "submitBlacklistProposal",
      "outputs": [],
      "payable": false,
      "stateMutability": "nonpayable",
      "type": "function"
    },
    {
      "constant": false,
      "inputs": [
        {
          "name": "_id",
          "type": "bytes32"
        },
        {
          "name": "_inFavor",
          "type": "bool"
        }
      ],
      "name": "vote",
      "outputs": [],
      "payable": false,
      "stateMutability": "nonpayable",
      "type": "function"
    },
    {
      "constant": false,
      "inputs": [
        {
          "name": "_id",
          "type": "bytes32"
        }
      ],
      "name": "finalizeVoting",
      "outputs": [],
      "payable": false,
      "stateMutability": "nonpayable",
      "type": "function"
    },
    {
      "constant": true,
      "inputs": [
        {
          "name": "_id",
          "type": "bytes32"
        }
      ],
      "name": "getVotingDetails",
      "outputs": [
        {
          "name": "",
          "type": "bytes32"
        },
        {
          "name": "",
          "type": "uint256"
        },
        {
          "name": "",
          "type": "address"
        },
        {
          "name": "",
          "type": "uint8"
        },
        {
          "name": "",
          "type": "bool"
        },
        {
          "name": "",
          "type": "address[]"
        },
        {
          "name": "",
          "type": "bool[]"
        }
      ],
      "payable": false,
      "stateMutability": "view",
      "type": "function"
    }
  ],
  "bytecode": "0x608060405234801561001057600080fd5b50612878806100206000396000f3fe608060405234801561001057600080fd5b50600436106102065760003560e01c8063a142b4481161011a578063c4d5608a116100ad578063ea0217cf1161007c578063ea0217cf146107a3578063f2fde38b146107c0578063f4e0f02b146107e6578063fc0c546a146107ee578063fe10d774146107f657610206565b8063c4d5608a14610750578063c4d66de814610758578063c838ccb61461077e578063d74073f91461078657610206565b8063b1548afc116100e9578063b1548afc146106f1578063b70edce71461070e578063ba2b54211461072b578063c393684e1461074857610206565b8063a142b4481461066b578063a8b1f29e14610697578063aa617fac146106bd578063ac7b20fe146106c557610206565b806338db914c1161019d5780638da5cb5b1161016c5780638da5cb5b146105e25780638f32d59b146105ea5780639155e083146105f25780639342f417146106205780639f2ce6781461064657610206565b806338db914c146104ff578063659b7c8f1461051c5780636d81717d146105d2578063715018a6146105da57610206565b806316a0cb95116101d957806316a0cb95146102e5578063296ea742146103e25780633224caf9146104555780633516f101146104c557610206565b80630145e3331461020b578063034cd24a1461024f578063071836e714610283578063104e45cf1461029d575b600080fd5b61024d600480360360a081101561022157600080fd5b506001600160a01b0381358116916020810135821691604082013516906060810135906080013561081c565b005b61024d6004803603606081101561026557600080fd5b508035906001600160a01b0360208201351690604001351515610bd7565b61028b610bfc565b60408051918252519081900360200190f35b6102c9600480360360408110156102b357600080fd5b50803590602001356001600160a01b0316610c03565b604080516001600160a01b039092168252519081900360200190f35b610302600480360360208110156102fb57600080fd5b5035610dca565b60405180888152602001878152602001866001600160a01b03166001600160a01b0316815260200185600081111561033657fe5b60ff168152602001841515151581526020018060200180602001838103835285818151815260200191508051906020019060200280838360005b83811015610388578181015183820152602001610370565b50505050905001838103825284818151815260200191508051906020019060200280838360005b838110156103c75781810151838201526020016103af565b50505050905001995050505050505050505060405180910390f35b610405600480360360408110156103f857600080fd5b5080359060200135610f2e565b60408051602080825283518183015283519192839290830191858101910280838360005b83811015610441578181015183820152602001610429565b505050509050019250505060405180910390f35b6104726004803603602081101561046b57600080fd5b5035611076565b6040518581526020810185801561048557fe5b60ff168152602001848152602001836001600160a01b03166001600160a01b03168152602001821515151581526020019550505050505060405180910390f35b6104eb600480360360208110156104db57600080fd5b50356001600160a01b03166110b6565b604080519115158252519081900360200190f35b61024d6004803603602081101561051557600080fd5b50356110d4565b6105396004803603602081101561053257600080fd5b5035611390565b604051808060200180602001838103835285818151815260200191508051906020019060200280838360005b8381101561057d578181015183820152602001610565565b50505050905001838103825284818151815260200191508051906020019060200280838360005b838110156105bc5781810151838201526020016105a4565b5050505090500194505050505060405180910390f35b61028b61161c565b61024d611631565b6102c961168c565b6104eb61169b565b61024d6004803603604081101561060857600080fd5b506001600160a01b03813516906020013515156116ac565b61024d6004803603602081101561063657600080fd5b50356001600160a01b031661178b565b61024d6004803603604081101561065c57600080fd5b508035906020013515156117f0565b6104eb6004803603604081101561068157600080fd5b506001600160a01b038135169060200135611925565b6104eb600480360360208110156106ad57600080fd5b50356001600160a01b0316611a59565b61024d611a6e565b61024d600480360360408110156106db57600080fd5b506001600160a01b038135169060200135611cb0565b6102c96004803603602081101561070757600080fd5b5035611d75565b61028b6004803603602081101561072457600080fd5b5035611d9c565b61028b6004803603602081101561074157600080fd5b5035611dba565b6102c9611e1d565b6102c9611e2c565b61024d6004803603602081101561076e57600080fd5b50356001600160a01b0316611e3b565b610405611f2c565b61024d6004803603602081101561079c57600080fd5b5035611f8e565b61024d600480360360208110156107b957600080fd5b5035611fe6565b61024d600480360360208110156107d657600080fd5b50356001600160a01b031661201b565b61028b612038565b6102c961203e565b61028b6004803603602081101561080c57600080fd5b50356001600160a01b031661204d565b60405180604001604052806002815260200161763160f01b8152506001816040518082805190602001908083835b602083106108695780518252601f19909201916020918201910161084a565b51815160209384036101000a600019018019909216911617905292019485525060405193849003019092205460ff1691508190506108aa57506108aa61205f565b8061091657506000816040518082805190602001908083835b602083106108e25780518252601f1990920191602091820191016108c3565b51815160209384036101000a600019018019909216911617905292019485525060405193849003019092205460ff16159150505b6109515760405162461bcd60e51b815260040180806020018281038252602e8152602001806127ec602e913960400191505060405180910390fd5b60006001826040518082805190602001908083835b602083106109855780518252601f199092019160209182019101610966565b51815160209384036101000a600019018019909216911617905292019485525060405193849003019092205460ff161592505081159050610aa357600180836040518082805190602001908083835b602083106109f35780518252601f1990920191602091820191016109d4565b51815160209384036101000a60001901801990921691161790529201948552506040519384900381018420805460ff19169515159590951790945550508351600192600092869290918291908401908083835b60208310610a655780518252601f199092019160209182019101610a46565b51815160209384036101000a60001901801990921691161790529201948552506040519384900301909220805460ff19169315159390931790925550505b6001600160a01b038716610ab657600080fd5b6001600160a01b038616610ac957600080fd5b6001600160a01b038516610adc57600080fd5b69d3c21bcecceda1000000831015610af357600080fd5b610afc87611e3b565b609d80546001600160a01b038089166001600160a01b031992831617909255609e8054888416908316179055609b859055609c8054928a169290911691909117905562015180609a55610b5660a28563ffffffff61206516565b8015610bce5760006001836040518082805190602001908083835b60208310610b905780518252601f199092019160209182019101610b71565b51815160209384036101000a60001901801990921691161790529201948552506040519384900301909220805460ff19169315159390931790925550505b50505050505050565b610be13342611925565b610bea57600080fd5b610bf7838360008461208e565b505050565b609f545b90565b609b54609d54600091610c29916001600160a01b0316903390309063ffffffff61222f16565b609e54609c546040805163c9a0271f60e01b8152600481018790526001600160a01b03868116602483015230604483015233606483015292831660848201528151600094939093169263c9a0271f9260a48084019391929182900301818787803b158015610c9657600080fd5b505af1158015610caa573d6000803e3d6000fd5b505050506040513d6040811015610cc057600080fd5b5051609f805460018082019092557f0bc14066c33013fe88f66e314e4cf150b0b2d4d6451a1a51dbbd1c27cd11de280180546001600160a01b0319166001600160a01b038416908117909155600081815260a060209081526040808320805460ff191686179055609b5460a190925280832091909155805163567619c560e11b8152600481019490945251939450909263acec338a92602480820193929182900301818387803b158015610d7357600080fd5b505af1158015610d87573d6000803e3d6000fd5b50506040513392506001600160a01b03841691507f58339be235a2e8222be03ef90f3318d309e46a994a2843f28a9cfe9b35eb196290600090a390505b92915050565b600081815260a36020908152604080832060058101805483518181528186028101909501909352849384938493849360609384938491908015610e17578160200160208202803883390190505b50905060005b8254811015610e8957836004016000848381548110610e3857fe5b60009182526020808320909101546001600160a01b03168352820192909252604001902054825160ff90911690839083908110610e7157fe5b91151560209283029190910190910152600101610e1d565b5082546002840154600385015460018601548554604080516020808402820181019092528281526001600160a01b0385169460ff94851694600160a01b909104169289928992918491830182828015610f0b57602002820191906000526020600020905b81546001600160a01b03168152600190910190602001808311610eed575b505050505091509950995099509950995099509950505050919395979092949650565b606080610f3a83611390565b5090506000815190506000610fa88560a2805480602002602001604051908101604052809291908181526020018280548015610f9557602002820191906000526020600020905b815481526020019060010190808311610f81575b505050505061228f90919063ffffffff16565b905080821015610fb55750805b606081604051908082528060200260200182016040528015610fe1578160200160208202803883390190505b50905082610ff4579350610dc492505050565b600083611009896103e863ffffffff6122cf16565b8161101057fe5b06905060005b838110156110695785858284018161102a57fe5b068151811061103557fe5b602002602001015183828151811061104957fe5b6001600160a01b0390921660209283029190910190910152600101611016565b5090979650505050505050565b60a3602052600090815260409020805460018201546002830154600390930154919260ff9182169290916001600160a01b03821691600160a01b90041685565b6001600160a01b0316600090815260a0602052604090205460ff1690565b600081815260a36020526040812080548291829182919086146110f657600080fd5b42611110609a54836002015461233990919063ffffffff16565b111561111b57600080fd5b6000600a61112761161c565b6003028161113157fe5b049050808260050180549050106112f4576001955060005b600583015481101561125d57600083600501828154811061116657fe5b60009182526020918290200154604080516319c64b7f60e31b815242600482015290516001600160a01b039092169263ce325bf892602480840193829003018186803b1580156111b557600080fd5b505afa1580156111c9573d6000803e3d6000fd5b505050506040513d60208110156111df57600080fd5b5051600585018054919250600486019160009190859081106111fd57fe5b60009182526020808320909101546001600160a01b0316835282019290925260400190205460ff16156112415761123a868263ffffffff61233916565b9550611254565b611251858263ffffffff61233916565b94505b50600101611149565b50828411156112f457600194506000600183015460ff16801561127c57fe5b14156112f457600382015460408051631ec14a3160e01b815260ff600160a01b8404161515600482015290516001600160a01b0390921691631ec14a319160248082019260009290919082900301818387803b1580156112db57600080fd5b505af11580156112ef573d6000803e3d6000fd5b505050505b600087815260a36020526040812081815560018101805460ff19169055600281018290556003810180546001600160a81b03191690559061133860058301826126e8565b5050604080518715158152861515602082015280820186905260608101859052905188917f11f3db83e859a35245bed2e3b5c9ef47249f3bde647a337761559368f44a742d919081900360800190a250505050505050565b6060806060609f805490506040519080825280602002602001820160405280156113c4578160200160208202803883390190505b5090506000805b609f5481101561146757611400609f82815481106113e557fe5b6000918252602090912001546001600160a01b031687611925565b1561145f57609f818154811061141257fe5b9060005260206000200160009054906101000a90046001600160a01b0316838361ffff168151811061144057fe5b6001600160a01b03909216602092830291909101909101526001909101905b6001016113cb565b5060608161ffff16604051908082528060200260200182016040528015611498578160200160208202803883390190505b50905060608261ffff166040519080825280602002602001820160405280156114cb578160200160208202803883390190505b50905060005b8361ffff1681101561160f5760008582815181106114eb57fe5b60200260200101519050806001600160a01b031663423307ae6040518163ffffffff1660e01b815260040160206040518083038186803b15801561152e57600080fd5b505afa158015611542573d6000803e3d6000fd5b505050506040513d602081101561155857600080fd5b5051845185908490811061156857fe5b60200260200101906001600160a01b031690816001600160a01b031681525050806001600160a01b03166352919be36040518163ffffffff1660e01b815260040160206040518083038186803b1580156115c157600080fd5b505afa1580156115d5573d6000803e3d6000fd5b505050506040513d60208110156115eb57600080fd5b505183518490849081106115fb57fe5b6020908102919091010152506001016114d1565b5090945092505050915091565b6000606061162942611390565b505191505090565b61163961169b565b61164257600080fd5b6067546040516000916001600160a01b0316907f8be0079c531659141344cd1fd0a4f28419497f9722a3daafe3b4186f6b6457e0908390a3606780546001600160a01b0319169055565b6067546001600160a01b031690565b6067546001600160a01b0316331490565b6116b461169b565b6116bd57600080fd5b6001600160a01b038216600090815260a06020526040902054829060ff166116e457600080fd5b60408051631ec14a3160e01b8152831515600482015290516001600160a01b03851691631ec14a3191602480830192600092919082900301818387803b15801561172d57600080fd5b505af1158015611741573d6000803e3d6000fd5b505060408051851515815290516001600160a01b03871693507f6a12b3df6cba4203bd7fd06b816789f87de8c594299aed5717ae070fac781bac92509081900360200190a2505050565b61179361169b565b61179c57600080fd5b609c80546001600160a01b0383166001600160a01b0319909116811790915560408051918252517f22c540886d7506e7379cf7406c0a93c42f3cb0a548faded0d138cf91e6b680719181900360200190a150565b6117fa3342611925565b61180357600080fd5b600082815260a3602052604090208054831461181e57600080fd5b42611838609a54836002015461233990919063ffffffff16565b1161184257600080fd5b3360005b600583015481101561189657816001600160a01b031683600501828154811061186b57fe5b6000918252602090912001546001600160a01b0316141561188e57505050611921565b600101611846565b506005820180546001810182556000918252602080832090910180546001600160a01b0319166001600160a01b038516908117909155808352600485018252604092839020805460ff191687151590811790915583519081529251909287927f944c79506d32f6865105a074d54edc0b6ed7d59ccad3903893134878345c235292918290030190a350505b5050565b6001600160a01b038216600090815260a0602052604081205460ff1661194d57506000610dc4565b6000839050806001600160a01b03166382afd23b846040518263ffffffff1660e01b81526004018082815260200191505060206040518083038186803b15801561199657600080fd5b505afa1580156119aa573d6000803e3d6000fd5b505050506040513d60208110156119c057600080fd5b50516119d0576000915050610dc4565b806001600160a01b0316634752f9ef846040518263ffffffff1660e01b81526004018082815260200191505060206040518083038186803b158015611a1457600080fd5b505afa158015611a28573d6000803e3d6000fd5b505050506040513d6020811015611a3e57600080fd5b505115611a4f576000915050610dc4565b5060019392505050565b60a06020526000908152604090205460ff1681565b33600081815260a0602052604090205460ff16611a8a57600080fd5b604080516382afd23b60e01b815242600482015290513391829182916382afd23b916024808301926020929190829003018186803b158015611acb57600080fd5b505afa158015611adf573d6000803e3d6000fd5b505050506040513d6020811015611af557600080fd5b50518015611b705750806001600160a01b0316634752f9ef426040518263ffffffff1660e01b81526004018082815260200191505060206040518083038186803b158015611b4257600080fd5b505afa158015611b56573d6000803e3d6000fd5b505050506040513d6020811015611b6c57600080fd5b5051155b611b7957600080fd5b6001600160a01b03808316600090815260a16020908152604080832080549390558051638da5cb5b60e01b815290519293611c189390861692638da5cb5b9260048082019391829003018186803b158015611bd357600080fd5b505afa158015611be7573d6000803e3d6000fd5b505050506040513d6020811015611bfd57600080fd5b5051609d546001600160a01b0316908363ffffffff61239a16565b6040805163567619c560e11b815260006004820181905291516001600160a01b0385169263acec338a926024808201939182900301818387803b158015611c5e57600080fd5b505af1158015611c72573d6000803e3d6000fd5b50506040516001600160a01b03861692507f98561cbe7c9c0b90726130c8409b307d4c9698c9e7ee2797aea68659cad104949150600090a250505050565b6001600160a01b038216600090815260a06020526040902054829060ff16611cd757600080fd5b609d54611cf5906001600160a01b031633308563ffffffff61222f16565b6001600160a01b038316600090815260a16020526040902054611d1e908363ffffffff61233916565b6001600160a01b038416600081815260a16020908152604091829020939093558051858152905191927f6ea499953f64009baa249358261280bb748cc5cebd5b4c04fd87ecc3a34563cd92918290030190a2505050565b609f8181548110611d8257fe5b6000918252602090912001546001600160a01b0316905081565b60a28181548110611da957fe5b600091825260209091200154905081565b6000610dc48260a2805480602002602001604051908101604052809291908181526020018280548015610f955760200282019190600052602060002090815481526020019060010190808311610f8157505050505061228f90919063ffffffff16565b609e546001600160a01b031681565b609c546001600160a01b031681565b603454610100900460ff1680611e545750611e5461205f565b80611e62575060345460ff16155b611e9d5760405162461bcd60e51b815260040180806020018281038252602e8152602001806127ec602e913960400191505060405180910390fd5b603454610100900460ff16158015611ec8576034805460ff1961ff0019909116610100171660011790555b606780546001600160a01b0319166001600160a01b0384811691909117918290556040519116906000907f8be0079c531659141344cd1fd0a4f28419497f9722a3daafe3b4186f6b6457e0908290a38015611921576034805461ff00191690555050565b6060609f805480602002602001604051908101604052809291908181526020018280548015611f8457602002820191906000526020600020905b81546001600160a01b03168152600190910190602001808311611f66575b5050505050905090565b611f9661169b565b611f9f57600080fd5b611fb060a28263ffffffff61206516565b6040805182815290517f140c58000c1e3eb3d46a02fa211dcb8da3d9cdefdf2e713385be021c5fd555a39181900360200190a150565b611fee61169b565b611ff757600080fd5b62015180811015801561200d575062278d008111155b61201657600080fd5b609a55565b61202361169b565b61202c57600080fd5b612035816123ec565b50565b609b5481565b609d546001600160a01b031681565b60a16020526000908152604090205481565b303b1590565b815460018181018455600084815260209020429281019290925583549081019093559190910155565b600084815260a360205260409020548414156120a957600080fd5b6120b1612706565b6040518060c001604052808681526020018460008111156120ce57fe5b8152602001428152602001856001600160a01b031681526020018315158152602001600060405190808252806020026020018201604052801561211b578160200160208202803883390190505b509052600086815260a3602090815260409091208251815590820151600180830180549495508594909160ff199091169083801561215557fe5b021790555060408201516002820155606082015160038201805460808501511515600160a01b0260ff60a01b196001600160a01b039094166001600160a01b0319909216919091179290921691909117905560a082015180516121c2916005840191602090910190612748565b50905050836001600160a01b0316336001600160a01b0316867f169ed6d58a02da1574ce2c8be9939c6109b15e2762d3738f5336241078c05ec486866040518083600081111561220e57fe5b60ff1681529115156020830152506040805191829003019150a45050505050565b604080516001600160a01b0385811660248301528416604482015260648082018490528251808303909101815260849091019091526020810180516001600160e01b03166323b872dd60e01b17905261228990859061245b565b50505050565b60008061229e84846002612613565b905080156122c5578360018203815181106122b557fe5b6020026020010151915050610dc4565b5060009392505050565b6000808211612325576040805162461bcd60e51b815260206004820152601a60248201527f536166654d6174683a206469766973696f6e206279207a65726f000000000000604482015290519081900360640190fd5b600082848161233057fe5b04949350505050565b600082820183811015612393576040805162461bcd60e51b815260206004820152601b60248201527f536166654d6174683a206164646974696f6e206f766572666c6f770000000000604482015290519081900360640190fd5b9392505050565b604080516001600160a01b038416602482015260448082018490528251808303909101815260649091019091526020810180516001600160e01b031663a9059cbb60e01b179052610bf790849061245b565b6001600160a01b0381166123ff57600080fd5b6067546040516001600160a01b038084169216907f8be0079c531659141344cd1fd0a4f28419497f9722a3daafe3b4186f6b6457e090600090a3606780546001600160a01b0319166001600160a01b0392909216919091179055565b61246d826001600160a01b03166126e2565b6124be576040805162461bcd60e51b815260206004820152601f60248201527f5361666545524332303a2063616c6c20746f206e6f6e2d636f6e747261637400604482015290519081900360640190fd5b60006060836001600160a01b0316836040518082805190602001908083835b602083106124fc5780518252601f1990920191602091820191016124dd565b6001836020036101000a0380198251168184511680821785525050505050509050019150506000604051808303816000865af19150503d806000811461255e576040519150601f19603f3d011682016040523d82523d6000602084013e612563565b606091505b5091509150816125ba576040805162461bcd60e51b815260206004820181905260248201527f5361666545524332303a206c6f772d6c6576656c2063616c6c206661696c6564604482015290519081900360640190fd5b805115612289578080602001905160208110156125d657600080fd5b50516122895760405162461bcd60e51b815260040180806020018281038252602a81526020018061281a602a913960400191505060405180910390fd5b600083516000141561262757506000612393565b83516000908390035b8082116126d9578551828201851c60001986011b9060009088908390811061265457fe5b60200260200101519050868110156126705785820193506126d2565b86811115612694578161268a576000945050505050612393565b85820392506126d2565b8186015b8851811080156126ba5750878982815181106126b057fe5b6020026020010151145b156126c6578601612698565b94506123939350505050565b5050612630565b50949350505050565b3b151590565b508054600082559060005260206000209081019061203591906127ad565b6040805160c081019091526000808252602082019081526020016000815260200160006001600160a01b03168152602001600015158152602001606081525090565b82805482825590600052602060002090810192821561279d579160200282015b8281111561279d57825182546001600160a01b0319166001600160a01b03909116178255602090920191600190910190612768565b506127a99291506127c7565b5090565b610c0091905b808211156127a957600081556001016127b3565b610c0091905b808211156127a95780546001600160a01b03191681556001016127cd56fe436f6e747261637420696e7374616e63652068617320616c7265616479206265656e20696e697469616c697a65645361666545524332303a204552433230206f7065726174696f6e20646964206e6f742073756363656564a265627a7a72305820252e3edd78622ea23bd2eac1bc2be45ba4c687b75da748f2cb402ab64f2aee3264736f6c634300050a0032",
  "source": "pragma solidity 0.5.10;\r\n\r\nimport \"openzeppelin-solidity/contracts/token/ERC20/SafeERC20.sol\";\r\nimport \"openzeppelin-solidity/contracts/token/ERC20/ERC20.sol\";\r\nimport \"openzeppelin-solidity/contracts/math/SafeMath.sol\";\r\nimport \"openzeppelin-eth/contracts/ownership/Ownable.sol\";\r\n\r\nimport \"./IDelegate.sol\";\r\nimport \"./IGovernance.sol\";\r\nimport \"./IDelegateFactory.sol\";\r\nimport \"../library/OperationStore.sol\";\r\nimport \"../upgradeability/OwnedUpgradeabilityProxy.sol\";\r\nimport \"../upgradeability/ParameterizedInitializable.sol\";\r\n\r\n/**\r\n * @title Ethereum-based governance contract\r\n */\r\ncontract Governance is IGovernance, ParameterizedInitializable, Ownable {\r\n    using SafeMath for uint256;\r\n    using SafeERC20 for ERC20;\r\n    using OperationStore for uint256[];\r\n\r\n    /** Number of Aerum blocks when composers are updated */\r\n    uint256 constant delegatesUpdateAerumBlocksPeriod = 1000;\r\n\r\n    /** Min voting period. Hardcoded to one day */\r\n    uint256 constant minVotingPeriod = 60 * 60 * 24;\r\n\r\n    /** Max voting period. Hardcoded to one month */\r\n    uint256 constant maxVotingPeriod = 60 * 60 * 24 * 30;\r\n\r\n    /** Period when delegates can vote from proposal submission. */\r\n    uint256 votingPeriod;\r\n\r\n    /** Bond required for delegate to be registered. Should be more than 1M */\r\n    uint256 public delegateBond;\r\n\r\n    /** User used to upgrade governance or delegate contracts. Owner by default */\r\n    address public upgradeAdmin;\r\n\r\n    /** XRM token */\r\n    ERC20 public token;\r\n\r\n    /** Delegate factory */\r\n    IDelegateFactory public delegateFactory;\r\n\r\n    /** List of all delegates */\r\n    address[] public delegates;\r\n    /** Mapping of all known delegates. It's used to quickly check if it's known delegate */\r\n    mapping(address => bool) public knownDelegates;\r\n    /** List of bonds known by delegate */\r\n    mapping(address => uint256) public bonds;\r\n\r\n    /** Composers count. We should keep full history for consensus */\r\n    uint256[] public composersCount;\r\n\r\n    enum VotingCategory { BLACKLIST }\r\n\r\n    struct Voting {\r\n        bytes32 id;\r\n        VotingCategory category;\r\n        uint256 timestamp;\r\n        address delegate;\r\n        bool proposal;\r\n        mapping(address => bool) votes;\r\n        address[] voters;\r\n    }\r\n\r\n    /** List of active votings */\r\n    mapping(bytes32 => Voting) public votings;\r\n\r\n    event UpgradeAdminUpdated(address admin);\r\n    event ComposersCountUpdated(uint256 count);\r\n    event BlacklistUpdated(address indexed delegate, bool blocked);\r\n\r\n    event DelegateCreated(address indexed delegate, address indexed owner);\r\n    event DelegateUnregistered(address indexed delegate);\r\n    event BondSent(address indexed delegate, uint256 amount);\r\n\r\n    event ProposalSubmitted(bytes32 indexed id, address indexed author, address indexed delegate, VotingCategory category, bool proposal);\r\n    event Vote(bytes32 indexed id, address indexed voter, bool inFavor);\r\n    event VotingFinalized(bytes32 indexed id, bool voted, bool supported, uint256 proponentsWeight, uint256 opponentsWeight);\r\n\r\n    /** Check if delegate is known **/\r\n    modifier onlyKnownDelegate(address delegate) {\r\n        require(knownDelegates[delegate]);\r\n        _;\r\n    }\r\n\r\n    /** Check if the sender is a valid delegate **/\r\n    modifier onlyValidDelegate {\r\n        require(isDelegateValid(msg.sender, block.timestamp));\r\n        _;\r\n    }\r\n\r\n    /**\r\n    * @notice Governance initializer\r\n    * @param _owner Governance owner address\r\n    * @param _token XRM token address\r\n    * @param _delegatesLimit Max delegates / composers limit at one point of time\r\n    * @param _delegateBond Delegate bond to be sent to create new delegate\r\n    */\r\n    function init(\r\n        address _owner, address _token, address _delegateFactory,\r\n        uint256 _delegatesLimit, uint256 _delegateBond\r\n    ) initiator(\"v1\") public {\r\n        require(_owner != address(0));\r\n        require(_token != address(0));\r\n        require(_delegateFactory != address(0));\r\n        require(_delegateBond >= 10 ** 24);\r\n\r\n        Ownable.initialize(_owner);\r\n        token = ERC20(_token);\r\n        delegateFactory = IDelegateFactory(_delegateFactory);\r\n\r\n        delegateBond = _delegateBond;\r\n        upgradeAdmin = _owner;\r\n        votingPeriod = minVotingPeriod;\r\n\r\n        composersCount.storeInt(_delegatesLimit);\r\n    }\r\n\r\n    /**\r\n    * @notice Set voting period\r\n    * @param _votingPeriod New voting period\r\n    */\r\n    function setVotingPeriod(uint256 _votingPeriod) external onlyOwner {\r\n        require(_votingPeriod >= minVotingPeriod && _votingPeriod <= maxVotingPeriod);\r\n        votingPeriod = _votingPeriod;\r\n    }\r\n\r\n    /**\r\n    * @notice Set admin who can upgrade delegate contracts\r\n    * @param _admin New upgradeability admin\r\n    */\r\n    function setUpgradeAdmin(address _admin) external onlyOwner {\r\n        upgradeAdmin = _admin;\r\n        emit UpgradeAdminUpdated(_admin);\r\n    }\r\n\r\n    /**\r\n    * @notice Set up limit of delegates / composers\r\n    * @param _count Delegates / composers count\r\n    */\r\n    function setComposersCount(uint256 _count) external onlyOwner {\r\n        composersCount.storeInt(_count);\r\n        emit ComposersCountUpdated(_count);\r\n    }\r\n\r\n    /**\r\n    * @notice Change delegate status in the blacklist\r\n    * @param _delegate Delegate to be updated\r\n    * @param _blocked Is delegate blocked or not\r\n    */\r\n    function updateBlacklist(address _delegate, bool _blocked) external onlyOwner onlyKnownDelegate(_delegate) {\r\n        IDelegate(_delegate).updateBlacklist(_blocked);\r\n        emit BlacklistUpdated(_delegate, _blocked);\r\n    }\r\n\r\n    /**\r\n    * @notice Get delegates limit for timestamp\r\n    * @param _timestamp Time for which composers count is returned\r\n    */\r\n    function getComposersCount(uint256 _timestamp) external view returns (uint256) {\r\n        return composersCount.getInt(_timestamp);\r\n    }\r\n\r\n    /**\r\n    * @notice Create new delegate contract, get bond and transfer ownership to a caller\r\n    * @param _name Delegate name\r\n    * @param _aerum Delegate Aerum address\r\n    */\r\n    function createDelegate(bytes32 _name, address _aerum) external returns (address) {\r\n        token.safeTransferFrom(msg.sender, address(this), delegateBond);\r\n\r\n        (address proxy, ) = delegateFactory.createDelegate(_name, _aerum, address(this), msg.sender, upgradeAdmin);\r\n\r\n        delegates.push(proxy);\r\n        knownDelegates[proxy] = true;\r\n        bonds[proxy] = delegateBond;\r\n\r\n        // Set delegate as active\r\n        IDelegate(proxy).setActive(true);\r\n\r\n        emit DelegateCreated(proxy, msg.sender);\r\n        return proxy;\r\n    }\r\n\r\n    /**\r\n    * @notice Unregister specified delegate. Can only be called by delegate itself\r\n    */\r\n    function unregisterDelegate() external onlyKnownDelegate(msg.sender) {\r\n        address delegateAddr = msg.sender;\r\n        IDelegate delegate = IDelegate(delegateAddr);\r\n        require(delegate.isActive(block.timestamp) && !delegate.isBlacklisted(block.timestamp));\r\n\r\n        uint256 bond = bonds[delegateAddr];\r\n        bonds[delegateAddr] = 0;\r\n        token.safeTransfer(delegate.owner(), bond);\r\n        delegate.setActive(false);\r\n\r\n        emit DelegateUnregistered(delegateAddr);\r\n    }\r\n\r\n    /**\r\n    * @notice Send bond for specified delegate, should be used when unregistered delegate wants to be registered again\r\n    * @param _delegate Delegate which will receive bond\r\n    * @param _amount Bond amount\r\n    */\r\n    function sendBond(address _delegate, uint256 _amount) external onlyKnownDelegate(_delegate) {\r\n        token.safeTransferFrom(msg.sender, address(this), _amount);\r\n        bonds[_delegate] = bonds[_delegate].add(_amount);\r\n        emit BondSent(_delegate, _amount);\r\n    }\r\n\r\n    /**\r\n    * @notice Whether specified delegate is known by governance, created by governance\r\n    * @param _delegate Delegate address to check\r\n    */\r\n    function isDelegateKnown(address _delegate) public view returns (bool) {\r\n        return knownDelegates[_delegate];\r\n    }\r\n\r\n    /**\r\n    * @notice List of composers for the specified block number and timestamp. This method is used by AerumGo\r\n    * @param _blockNum Aerum block number. Used for delegates list shifting\r\n    * @param _timestamp Time at which composers list is requested\r\n    */\r\n    function getComposers(uint256 _blockNum, uint256 _timestamp) external view returns (address[] memory) {\r\n        (address[] memory candidates,) = getValidDelegates(_timestamp);\r\n        uint256 candidatesLength = candidates.length;\r\n\r\n        uint256 limit = composersCount.getInt(_timestamp);\r\n        if (candidatesLength < limit) {\r\n            limit = candidatesLength;\r\n        }\r\n\r\n        address[] memory composers = new address[](limit);\r\n\r\n        if (candidatesLength == 0) {\r\n            return composers;\r\n        }\r\n\r\n        uint256 first = _blockNum.div(delegatesUpdateAerumBlocksPeriod) % candidatesLength;\r\n        for (uint256 index = 0; index < limit; index++) {\r\n            composers[index] = candidates[(first + index) % candidatesLength];\r\n        }\r\n\r\n        return composers;\r\n    }\r\n\r\n    /**\r\n    * @notice List of all active delegates addresses\r\n    */\r\n    function getDelegates() public view returns (address[] memory) {\r\n        return delegates;\r\n    }\r\n\r\n    /**\r\n    * @notice Returns number of active delegates\r\n    */\r\n    function getDelegateCount() public view returns (uint256) {\r\n        return delegates.length;\r\n    }\r\n\r\n    /**\r\n    * @notice List of valid delegates which might be composers and their names\r\n    * @param _timestamp Time at which delegates list is requested\r\n    */\r\n    function getValidDelegates(uint256 _timestamp) public view returns (address[] memory, bytes32[] memory) {\r\n        address[] memory array = new address[](delegates.length);\r\n        uint16 length = 0;\r\n        for (uint256 i = 0; i < delegates.length; i++) {\r\n            if (isDelegateValid(delegates[i], _timestamp)) {\r\n                array[length] = delegates[i];\r\n                length++;\r\n            }\r\n        }\r\n        address[] memory addresses = new address[](length);\r\n        bytes32[] memory names = new bytes32[](length);\r\n        for (uint256 j = 0; j < length; j++) {\r\n            IDelegate delegate = IDelegate(array[j]);\r\n            addresses[j] = delegate.getDelegateAerumAddress();\r\n            names[j] = delegate.getNameAsBytes();\r\n        }\r\n        return (addresses, names);\r\n    }\r\n\r\n    /**\r\n    * @notice Returns valid delegates count\r\n    */\r\n    function getValidDelegateCount() public view returns (uint256) {\r\n        (address[] memory validDelegates,) = getValidDelegates(block.timestamp);\r\n        return validDelegates.length;\r\n    }\r\n\r\n    /**\r\n    * @notice Whether specified delegate can be a composer\r\n    * @param _delegate Delegate address to validate\r\n    * @param _timestamp Time at which check is requested\r\n    */\r\n    function isDelegateValid(address _delegate, uint256 _timestamp) public view returns (bool) {\r\n        if (!knownDelegates[_delegate]) {\r\n            // Delegate not owned by this contract\r\n            return false;\r\n        }\r\n        IDelegate proxy = IDelegate(_delegate);\r\n        // Delegate has not been activated\r\n        if (!proxy.isActive(_timestamp)) {\r\n            return false;\r\n        }\r\n        // Delegate has not been blacklisted\r\n        if (proxy.isBlacklisted(_timestamp)) {\r\n            return false;\r\n        }\r\n        return true;\r\n    }\r\n\r\n    /**\r\n    * @notice Make a proposal to add/remove specified delegate to the blacklist\r\n    * @param _id Voting id\r\n    * @param _delegate Delegate affected by voting\r\n    * @param _proposal Should be blacklisted on un blacklisted\r\n    */\r\n    function submitBlacklistProposal(bytes32 _id, address _delegate, bool _proposal) external onlyValidDelegate {\r\n        submitProposal(_id, _delegate, VotingCategory.BLACKLIST, _proposal);\r\n    }\r\n\r\n    /**\r\n    * @notice Make generic proposal\r\n    * @param _id Voting id\r\n    * @param _delegate Delegate affected by voting\r\n    * @param _category Voting category: activate or blacklist\r\n    * @param _proposal Should be blacklisted on un blacklisted\r\n    */\r\n    function submitProposal(bytes32 _id, address _delegate, VotingCategory _category, bool _proposal) internal {\r\n        // make sure voting is unique\r\n        require(votings[_id].id != _id);\r\n\r\n        Voting memory voting = Voting({\r\n            id : _id,\r\n            category : _category,\r\n            timestamp : block.timestamp,\r\n            delegate : _delegate,\r\n            proposal : _proposal,\r\n            voters : new address[](0)\r\n        });\r\n\r\n        votings[_id] = voting;\r\n\r\n        emit ProposalSubmitted(_id, msg.sender, _delegate, _category, _proposal);\r\n    }\r\n\r\n    /**\r\n    * @notice Vote in favor or against proposal with the specified identifier\r\n    * @param _id Voting id\r\n    * @param _inFavor Support proposal or not\r\n    */\r\n    function vote(bytes32 _id, bool _inFavor) external onlyValidDelegate {\r\n        Voting storage voting = votings[_id];\r\n        // have specified blacklist voting\r\n        require(voting.id == _id);\r\n        // voting is still active\r\n        require(voting.timestamp.add(votingPeriod) > block.timestamp);\r\n\r\n        address voter = msg.sender;\r\n        for (uint256 index = 0; index < voting.voters.length; index++) {\r\n            if (voting.voters[index] == voter) {\r\n                // delegate already voted\r\n                return;\r\n            }\r\n        }\r\n\r\n        voting.voters.push(voter);\r\n        voting.votes[voter] = _inFavor;\r\n\r\n        emit Vote(_id, voter, _inFavor);\r\n    }\r\n\r\n    /**\r\n    * @notice Finalize voting and apply proposed changes if success.\r\n    * This method will fail if voting period is not over.\r\n    * @param _id Voting id\r\n    */\r\n    function finalizeVoting(bytes32 _id) external {\r\n        bool voted;\r\n        bool supported;\r\n        uint256 proponentsWeight;\r\n        uint256 opponentsWeight;\r\n        Voting storage voting = votings[_id];\r\n        // have specified blacklist voting\r\n        require(voting.id == _id);\r\n        // voting period if finished\r\n        require(voting.timestamp.add(votingPeriod) <= block.timestamp);\r\n\r\n        uint256 requiredVotesNumber = getValidDelegateCount() * 3 / 10;\r\n        if (voting.voters.length >= requiredVotesNumber) {\r\n            voted = true;\r\n            for (uint256 index = 0; index < voting.voters.length; index++) {\r\n                uint256 stake = IDelegate(voting.voters[index]).getStake(block.timestamp);\r\n                if (voting.votes[voting.voters[index]]) {\r\n                    proponentsWeight = proponentsWeight.add(stake);\r\n                } else {\r\n                    opponentsWeight = opponentsWeight.add(stake);\r\n                }\r\n            }\r\n            if(proponentsWeight > opponentsWeight) {\r\n                supported = true;\r\n                if (voting.category == VotingCategory.BLACKLIST) {\r\n                    IDelegate(voting.delegate).updateBlacklist(voting.proposal);\r\n                }\r\n            }\r\n        }\r\n\r\n        delete votings[_id];\r\n\r\n        emit VotingFinalized(_id, voted, supported, proponentsWeight, opponentsWeight);\r\n    }\r\n\r\n    /**\r\n    * @notice Returns voting details by id\r\n    * @param _id Voting id\r\n    */\r\n    function getVotingDetails(bytes32 _id) external view returns (bytes32, uint256, address, VotingCategory, bool, address[] memory, bool[] memory) {\r\n        Voting storage voting = votings[_id];\r\n        address[] storage voters = voting.voters;\r\n\r\n        bool[] memory votes = new bool[] (voters.length);\r\n        for (uint256 index = 0; index < voters.length; index++) {\r\n            votes[index] = voting.votes[voters[index]];\r\n        }\r\n\r\n        return (voting.id, voting.timestamp, voting.delegate, voting.category, voting.proposal, voters, votes);\r\n    }\r\n\r\n}\r\n",
  "sourcePath": "C:\\Projects\\Aerum\\aerumnet\\governance\\contracts\\governance\\Governance.sol",
  "compiler": {
    "name": "solc",
    "version": "0.5.10+commit.5a6ea5b1.Emscripten.clang"
  },
  "schemaVersion": "3.0.11",
  "updatedAt": "2019-07-19T08:44:50.672Z",
  "devdoc": {
    "methods": {
      "createDelegate(bytes32,address)": {
        "params": {
          "_aerum": "Delegate Aerum address\r",
          "_name": "Delegate name\r"
        }
      },
      "finalizeVoting(bytes32)": {
        "params": {
          "_id": "Voting id\r"
        }
      },
      "getComposers(uint256,uint256)": {
        "params": {
          "_blockNum": "Aerum block number. Used for delegates list shifting\r",
          "_timestamp": "Time at which composers list is requested\r"
        }
      },
      "getComposersCount(uint256)": {
        "params": {
          "_timestamp": "Time for which composers count is returned\r"
        }
      },
      "getValidDelegates(uint256)": {
        "params": {
          "_timestamp": "Time at which delegates list is requested\r"
        }
      },
      "getVotingDetails(bytes32)": {
        "params": {
          "_id": "Voting id\r"
        }
      },
      "init(address,address,address,uint256,uint256)": {
        "params": {
          "_delegateBond": "Delegate bond to be sent to create new delegate\r",
          "_delegatesLimit": "Max delegates / composers limit at one point of time\r",
          "_owner": "Governance owner address\r",
          "_token": "XRM token address\r"
        }
      },
      "initialize(address)": {
        "details": "The Ownable constructor sets the original `owner` of the contract to the sender account."
      },
      "isDelegateKnown(address)": {
        "params": {
          "_delegate": "Delegate address to check\r"
        }
      },
      "isDelegateValid(address,uint256)": {
        "params": {
          "_delegate": "Delegate address to validate\r",
          "_timestamp": "Time at which check is requested\r"
        }
      },
      "isOwner()": {
        "return": "true if `msg.sender` is the owner of the contract."
      },
      "owner()": {
        "return": "the address of the owner."
      },
      "renounceOwnership()": {
        "details": "Allows the current owner to relinquish control of the contract. It will not be possible to call the functions with the `onlyOwner` modifier anymore."
      },
      "sendBond(address,uint256)": {
        "params": {
          "_amount": "Bond amount\r",
          "_delegate": "Delegate which will receive bond\r"
        }
      },
      "setComposersCount(uint256)": {
        "params": {
          "_count": "Delegates / composers count\r"
        }
      },
      "setUpgradeAdmin(address)": {
        "params": {
          "_admin": "New upgradeability admin\r"
        }
      },
      "setVotingPeriod(uint256)": {
        "params": {
          "_votingPeriod": "New voting period\r"
        }
      },
      "submitBlacklistProposal(bytes32,address,bool)": {
        "params": {
          "_delegate": "Delegate affected by voting\r",
          "_id": "Voting id\r",
          "_proposal": "Should be blacklisted on un blacklisted\r"
        }
      },
      "transferOwnership(address)": {
        "details": "Allows the current owner to transfer control of the contract to a newOwner.",
        "params": {
          "newOwner": "The address to transfer ownership to."
        }
      },
      "updateBlacklist(address,bool)": {
        "params": {
          "_blocked": "Is delegate blocked or not\r",
          "_delegate": "Delegate to be updated\r"
        }
      },
      "vote(bytes32,bool)": {
        "params": {
          "_id": "Voting id\r",
          "_inFavor": "Support proposal or not\r"
        }
      }
    },
    "title": "Ethereum-based governance contract\r"
  },
  "userdoc": {
    "methods": {
      "createDelegate(bytes32,address)": {
        "notice": "Create new delegate contract, get bond and transfer ownership to a caller\r"
      },
      "finalizeVoting(bytes32)": {
        "notice": "Finalize voting and apply proposed changes if success.\r This method will fail if voting period is not over.\r"
      },
      "getComposers(uint256,uint256)": {
        "notice": "List of composers for the specified block number and timestamp. This method is used by AerumGo\r"
      },
      "getComposersCount(uint256)": {
        "notice": "Get delegates limit for timestamp\r"
      },
      "getDelegateCount()": {
        "notice": "Returns number of active delegates\r"
      },
      "getDelegates()": {
        "notice": "List of all active delegates addresses\r"
      },
      "getValidDelegateCount()": {
        "notice": "Returns valid delegates count\r"
      },
      "getValidDelegates(uint256)": {
        "notice": "List of valid delegates which might be composers and their names\r"
      },
      "getVotingDetails(bytes32)": {
        "notice": "Returns voting details by id\r"
      },
      "init(address,address,address,uint256,uint256)": {
        "notice": "Governance initializer\r"
      },
      "isDelegateKnown(address)": {
        "notice": "Whether specified delegate is known by governance, created by governance\r"
      },
      "isDelegateValid(address,uint256)": {
        "notice": "Whether specified delegate can be a composer\r"
      },
      "renounceOwnership()": {
        "notice": "Renouncing ownership will leave the contract without an owner, thereby removing any functionality that is only available to the owner."
      },
      "sendBond(address,uint256)": {
        "notice": "Send bond for specified delegate, should be used when unregistered delegate wants to be registered again\r"
      },
      "setComposersCount(uint256)": {
        "notice": "Set up limit of delegates / composers\r"
      },
      "setUpgradeAdmin(address)": {
        "notice": "Set admin who can upgrade delegate contracts\r"
      },
      "setVotingPeriod(uint256)": {
        "notice": "Set voting period\r"
      },
      "submitBlacklistProposal(bytes32,address,bool)": {
        "notice": "Make a proposal to add/remove specified delegate to the blacklist\r"
      },
      "unregisterDelegate()": {
        "notice": "Unregister specified delegate. Can only be called by delegate itself\r"
      },
      "updateBlacklist(address,bool)": {
        "notice": "Change delegate status in the blacklist\r"
      },
      "vote(bytes32,bool)": {
        "notice": "Vote in favor or against proposal with the specified identifier\r"
      }
    }
  }
}